:0400000023EF00F0FA
:06000800518201EF08F037
:100018005180E0CF50F0F0A614EF00F016EF00F09A
:100028001FEF00F0F0A01BEF00F01DEF00F01FEF36
:1000380000F05FEC08F050C0E0FF5190100023EF93
:0200480008F0BE
:101000000000F2A806EF08F008EF08F011EF08F072
:10101000F2A20DEF08F00FEF08F011EF08F063EC0B
:1010200008F0F0A816EF08F018EF08F021EF08F02C
:10103000F0A21DEF08F01FEF08F021EF08F061ECBF
:1010400008F051921100800EF66E100EF76E000E31
:10105000F86E00EE01F010EE32F00900F5CFEEFF71
:10106000E550E150FAE100EE33F01D0EEE6AE806BD
:10107000FDE151905192000EF86E000159EF08F019
:101080003738392F3435362A3132332D23303D2B42
:10109000800F810F820F830F840F890F8A0F8B0FB0
:1010A0008C0F8D0F920F930F940F950F960F0101D8
:1010B000010165EC08F05BEF08F023EF00F0F0921F
:0C10C0001200F0921200F29212001200D6
:020000040030CA
:0E000000FF02191EFF8981FF0FC00FE00F40A5
:00000001FF
